:0400DC000208465080
:1000BC00D3EF9400EE6480948040147D727C00ED4C
:0F00CC001D70011CED4C70F7EF1F70E41E80E1FA
:0100DB002202
:10008F00D3E5099400E50864809480401CD292D295
:10009F00907FF47E011200BCC2907FF47E011200AB
:0D00AF00BCE509150970021508C29280D346
:03000000020003F8
:0C000300787FE4F6D8FD75810902004A00
:10000F0002008FE493A3F8E493A34003F68001F278
:10001F0008DFF48029E493A3F85407240CC8C333F2
:10002F00C4540F4420C8834004F456800146F6DFC1
:10003F00E4800B01020408102040809000DCE47E75
:10004F00019360BCA3FF543F30E509541FFEE493B6
:10005F00A360010ECF54C025E060A840B8E493A37D
:10006F00FAE493A3F8E493A3C8C582C8CAC583CAA8
:10007F00F0A3C8C582C8CAC583CADFE9DEE780BE60
:0100E000001F
:00000001FF
