:0400BB000208000037
:0D0092007F0D7EF77D8EDDFEDEFADFF600CD
:01009F00223E
:0E00A000D2AFD288D2A8120092D2A0C2A02263
:030003000200AE4A
:0D00AE00C0E00509E50970020508D0E03248
:03000000020006F5
:0C000600787FE4F6D8FD75810902004DFA
:100012000200A0E493A3F8E493A34003F68001F264
:1000220008DFF48029E493A3F85407240CC8C333EF
:10003200C4540F4420C8834004F456800146F6DFBE
:10004200E4800B01020408102040809000BBE47E93
:10005200019360BCA3FF543F30E509541FFEE493B3
:10006200A360010ECF54C025E060A840B8E493A37A
:10007200FAE493A3F8E493A3C8C582C8CAC583CAA5
:10008200F0A3C8C582C8CAC583CADFE9DEE780BE5D
:0100BF000040
:00000001FF
