:030000000200A05B
:0C00A000787FE4F6D8FD75810F0200E7C0
:0801BD00020C01F4020E01F432
:10017700C282C283C284C285C286C2A57580FFC2FD
:04018700A612012C8F
:10018B00850C08850D09D3E5099400E50864809476
:10019B0080401E750A00750B72E50B150B7002156E
:1001AB000AE50B450A70F2E509150970D9150880A7
:0201BB00D5224B
:10012C00850E08850F09D3E5099400E508648094D1
:10013C0080401E750A00750B72E50B150B700215CD
:10014C000AE50B450A70F2E509150970D915088006
:10015C00D5D2A5D2A6D280D281D282D283D284D259
:0B016C0085D286C2A57580FFC2A622C6
:10000300D2A5D2A6C280C281C282C283C284C28563
:10001300120181D2A5D2A6C284C285120181D2A5C2
:10002300D2A6C280C281C283C28412017FD2A5D26A
:10003300A6C280C281C282C28312017FD2A5D2A688
:10004300C281C28212017DD2A5D2A6C280C282C25F
:100053008312017DD2A5D2A6C280120177D2A5D286
:10006300A6C280C281C282120181D2A5D2A6C28059
:10007300C281120177D2A5D2A6C280C281C282C236
:100083008312017DD2A5D2A6D283C284C285C28740
:0D009300C2A57580FFC2A612012C02018BD0
:1000AC00020003E493A3F8E493A34003F68001F267
:1000BC0008DFF48029E493A3F85407240CC8C33355
:1000CC00C4540F4420C8834004F456800146F6DF24
:1000DC00E4800B01020408102040809001BDE47EF6
:1000EC00019360BCA3FF543F30E509541FFEE49319
:1000FC00A360010ECF54C025E060A840B8E493A3E0
:10010C00FAE493A3F8E493A3C8C582C8CAC583CA0A
:10011C00F0A3C8C582C8CAC583CADFE9DEE780BEC2
:0101C5000039
:00000001FF
