:10006B00D3EF9400EE6480948040147D727C00ED9D
:0F007B001D70011CED4C70F7EF1F70E41E80E14B
:01008A002253
:040039008E088F0995
:10003D00C2A3E4FBFAC294AF03E509AE08A8070812
:10004D008005C333CE33CED8F9339290D2940BBB07
:0D005D0000010AEB64084A70DCD2A3D290C7
:01006A002273
:100003009003E8C3E5836480948040297F047E00E5
:10001300120039AF82AE8312006BE4FFFE12003987
:10002300AF82AE8312006B74F12582F58274FF35C3
:0500330083F58380CE7F
:0100380022A5
:0300000002008B70
:0C008B00787FE4F6D8FD758109020003BF
:00000001FF
