:10008900D3EF9400EE6480948040147D727C00ED7F
:0F0099001D70011CED4C70F7EF1F70E41E80E12D
:0100A8002235
:040057008E088F0977
:10005B00C2A3E4FBFAC294AF03E509AE08A80708F4
:10006B008005C333CE33CED8F9339290D2940BBBE9
:0D007B0000010AEB64084A70DCD2A3D290A9
:010088002255
:10000300D2A7E4FFFE120057E4F50A20A7FD7F0AFA
:100013007E0012008920A7F330A7FD7F1E7E001209
:100023000089E50A70047F0180027F008F0AE50AD8
:10003300700D7F0AFE1200577FF47E01120089E5DE
:100043000AB401C77F027E001200577FF47E0112BB
:04005300008980B7E9
:030000000200A952
:0C00A900787FE4F6D8FD75810A020003A0
:00000001FF
