:0D066D00D2B2C2B6C2B7C2B3C2B4C2B52287
:10061E00D3EF9400EE940040147D6E7C00ED1D70BF
:0D062E00011CED4C70F7EF1F70E61E80E31D
:01063B00229C
:1005F900C2B27B46AF031BEF70FAD2B2E4FB30B252
:10060900117F017E0012061E0BEBD3940540EF7F8C
:0406190000227F013B
:01061D0022BA
:0C05D2001205F97F017E0012061E7FCC8E
:1005DE00E4FEC2B2EF1392B27D06AC051DEC70FACA
:0A05EE00D2B2EFC313FF0EBE08E8FF
:0105F80022E0
:10055D007D087C00C2B20FBF0000D2B20FBF0000F9
:10056D000FBF0000A2B2E433C43333335480FBE930
:10057D00C3134BF97E007F04EF1FAA0670011E4ABC
:0D058D0070F6ED1D70011CED4C70C9AF0142
:01059A00223E
:080686001205D27F440205DEDB
:08068E001205D27FBE0205DE59
:10065600E4FFFE12068612068E12055D8F1612053F
:060666005DEFFEE516FF4A
:01066C00226B
:08063C001204A7E51124FDFFE3
:10064400EFD39400400B7E8E7D02DDFEDEFA1F8028
:01065400EFB6
:010655002282
:1004A700EE6003020556EFB40B00400302055690B9
:1004B70004BDF82828730204DE0204E20204E802FD
:1004C70004F60204FC02050402050E0205180205E3
:1004D70026020534020546D2A08046D2A0D2A180CA
:1004E70018C2A0D2A1C2A2C2A3C2A4C2A5805CC2E4
:1004F700A0D2A1803CC2A0C2A1D2A2801AC2A0C22F
:10050700A1C2A2D2A3802EC2A0C2A1C2A2D2A3809E
:1005170016D2A0D2A1C2A2C2A3D2A4D2A5801AC2C7
:10052700A0C2A1C2A2C2A3C2A4C2A5800CC2A0C27B
:10053700A1C2A2C2A3D2A4C2A5C2A6D2A78010D22A
:10054700A0D2A1D2A2D2A3D2A4D2A5D2A6D2A7EDDD
:060557004C7002C2A72255
:10059B007D017C001204A7AF111206447F027E007E
:1005AB00EF64014E7007C2B4C2B3D2B522EF64023E
:1005BB004E7007C2B5C2B3D2B422EF64034E7006BD
:0705CB00C2B5C2B4D2B32295
:1003590075100075111412066D120656AB07AA0620
:10036900D3EB9400EA648094804006C2B6D2B78089
:1003790004D2B6C2B7C3EA64809480500DEB1B70F7
:10038900011A6303FF6302FF8000AD03AC02EC12A4
:1003990002068F158E148D138C12E4FFFE7DC87C26
:1003A90040AB15AA14A913A8121200FBE4FBFAF931
:1003B900783F12000A12023FAA06AB077C277D107C
:1003C900AF03AE021202C08E088F097C277D10AFE1
:1003D90003AE021202C07E037FE8CFCDCFCECCCED2
:1003E9001202C08E0A8F0B7C277D10AF03AE02125A
:1003F90002C07E037FE8CFCDCFCECCCE1202C07E25
:10040900007F64CFCDCFCECCCE1202C08E0C8F0D23
:10041900AE02AF037C007D641202C07E007F0ACF6A
:10042900CDCFCECCCE1202C08E0E8F0FE509450876
:1004390060327F017E001205ABAF09AE0812059B41
:100449007D01AF0BAE0A12063C7F037E001205AB9D
:10045900E4FDAF0DAE0C1204A7E51124EFFF12065F
:1004690044020362E509450860030203627F01FE55
:100479001205ABAF0BAE0A12059BE4FDAF0DAE0C36
:1004890012063C7F037E001205AB7D01AF0FAE0E55
:0E0499001204A7E51124EFFF120644020362CD
:100003000202ABE86480F8E933E83360110460F07E
:10001300ED33EC337009E8FCE9FDEAFEEBFF220463
:1000230060DED3EB9FEA9EE99DE8C2E78CF0C2F75E
:1000330095F0400CE8CCF8E9CDF9EACEFAEBCFFB2A
:1000430012027685D0F05804700320D5B3E804700B
:10005300075002B2D50202B592D5EC0460F7E4CCA6
:10006300C0E0C398F8603B94186008400DD0E0FBF3
:1000730002028DE4FBFAC9FC8028E830E406E4C9F7
:10008300FBE4CAFCE830E305E4C9CACBFCE8540747
:100093006010F8C3E913F9EA13FAEB13FBEC13FC52
:1000A300D8F130F52FC3E49CFCEF9BFFEE9AFEEDF5
:1000B30099FDD0E0FBEF4E4D4C701222DB030202A0
:1000C300B2EC2CFCEF33FFEE33FEED33FDED30E706
:1000D300EB02028DEF2BFFEE3AFEED39FDD0E0FB94
:1000E30050130BBB00030202B5ED13FDEE13FEEF3D
:0800F30013FFEC13FC02028D67
:1000FB00EC4D6011E8497017ED33EC3304600DE4FF
:10010B00FCFFFEFD22E933E8330470F80202AB1268
:10011B00027658046009E4CC248150062850090269
:10012B0002B52840030202B2C0E0EB4A7044B9802A
:10013B0006D0E0FB0202A1EF4E701CBD8008EBFF66
:10014B00EAFEE9FD80EBE98DF0A4FEE5F00201E4A7
:10015B00E9CDF9EAFEEBFFEF89F0A4FCE5F0CE89DF
:10016B00F0A42EFFE435F0CD89F0A42DFEE435F09C
:10017B008067EF4E7005BD80D780C3EF8BF0A4ACCA
:10018B00F0EE8BF0A42CFCE435F0F8EF8AF0A42C05
:10019B00E5F038FCE433CB8DF0A42CFCE5F03BF818
:1001AB00EE8AF0A42CFCE5F038F8E433CF89F0A408
:1001BB002CFCE5F038CF3400CE89F0A42FFFE5F00E
:1001CB003EFEE433C98DF0A42EFEE5F039CD8AF066
:1001DB00A42FFFE5F03EFEE43DFD33D0E0FB5007DE
:1001EB000BBB000F0202B5EC2CFCEF33FFEE33FE22
:0601FB00ED33FD02028D50
:1002010075F020800E75F010800575F0087D007E78
:10021100007F003392D530D5031202F6EC33401043
:10022100EF33FFEE33FEED33FDEC33FCD5F0ED2281
:0E023100E5F0247EA2D513CC92E7CDCEFF22BD
:10023F00EDD2E7CD33EC3392D524814006E4FFFEB7
:10024F00FDFC22FCE4CFCECDCC24E0501174FF8016
:10025F00EDC3CC13CCCD13CDCE13CECF13CF0470B3
:07026F00F030D5DE0202F6BB
:10027600E9D2E7C933E833F892D5EDD2E7CD33ECCE
:0702860033FC5002B2D52247
:10028D00EC30E7100FBF000C0EBE00080DBD0004D2
:10029D000BEB6014A2D5EB13FCED92E7FD2274FF7E
:1002AD00FCFDFEFF22E480F8A2D574FF13FC7D80D7
:0302BD00E480EFEB
:0300000002067A7B
:0C067A00787FE4F6D8FD75811602035964
:1002C000C2D5EC30E709B2D5E4C39DFDE49CFCEE59
:1002D00030E715B2D5E4C39FFFE49EFE120304C3CA
:1002E000E49DFDE49CFC800312030430D507C3E4C5
:0602F0009FFFE49EFE22C8
:0E02F600C3E49FFFE49EFEE49DFDE49CFC2219
:10030400BC000BBE0029EF8DF084FFADF022E4CCDD
:10031400F875F008EF2FFFEE33FEEC33FCEE9DECA6
:10032400984005FCEE9DFE0FD5F0E9E4CEFD22EDEC
:10033400F8F5F0EE8420D21CFEADF075F008EF2F36
:10034400FFED33FD4007985006D5F0F222C398FD27
:050354000FD5F0EA22C4
:00000001FF
