:0C03250002120032020A00000210000068
:10031100EF64014E7007D2AFD2A8D28822EF4E709F
:0403210002C2AF2243
:0C033200759002D2B2C2A0C2B0C2B122CB
:0402EE007F647E00AB
:1002F200D3EF9400EE94004015E4FDFC0DBD000127
:0E0302000CED647D4C70F5EF1F70E51E80E27F
:0103100022CA
:10021600E50D450C7012FFFE120311E4F590D2B203
:10022600D2A0C2B0C2B180FED3E50D9419E50C642C
:100236008094804016E50D944BE50C6480948050C4
:100246000AC291C292D290E4FEFF22C3E50D944BFE
:10025600E50C64809480400BC290C292D2917E00DD
:100266007F0A22D3E50D9400E50C64809480401744
:10027600D3E50D9419E50C64809480500AC290C2AF
:0802860091D2927E007F01225B
:100006001203327F017E0012031175080075091470
:1000160085120C85130DE4F50EF50F120216D3E5C5
:10002600099400E508648094804002D2A17FC87ECE
:10003600001202F2D2967F2C7E011202F2C296E5DF
:100046000D150D7033150C802FD3E50B9400E50AC2
:100056006480948040277F967E001202F2D2947FBD
:10006600967E001202F2C294E50B150B7002150A79
:100076000511E5117002051012021680CCD3E511A8
:100086009400E5106480948040337FC87E0012029D
:10009600F2D295C2947FC87E001202F2C295D29423
:1000A600E511151170021510050DE50D7002050C10
:1000B600120216E511451070C4C29480C0120216D1
:1000C6008E0E8F0FE50F640A450E704A7F587E022A
:1000D6001202F2C3E50D9432E50C6480948040323E
:1000E600D297D2B1D2961202EEE50D150D70021519
:1000F6000C0509E50970020508C2961202EE120205
:1001060016D3E5099400E5086480948040C5D2A121
:1001160080C1C297C2B1E50F6401450E60030200BB
:1001260024D3E5099400E508648094805003020016
:10013600247F587E021202F2D3E5099400E5086492
:10014600809480402DD297D2B0D2951202EE050D42
:10015600E50D7002050CE509150970021508C29532
:100166001202EE120216E50D6432450C70CAC297F1
:10017600C2B0C297C2B0E50945086003020024C2B6
:04018600A1020024AE
:0300030002028E68
:10028E00C0E0C0D075D000C004C005C006C00720B5
:10029E00B2417F197E001202F220B237C296C29589
:1002AE00C294C3E50A648094804028D3E50B94641D
:1002BE00E50A64809480501B20B2151202EED29390
:1002CE001202EEC293050BE50B7002050A1202161E
:1002DE0030B2CFD007D006D005D004D0D0D0E03287
:0300000002018A70
:0C018A00787FE4F6D8FD7581130201D1E6
:10019600020006E493A3F8E493A34003F68001F279
:1001A60008DFF48029E493A3F85407240CC8C3336A
:1001B600C4540F4420C8834004F456800146F6DF39
:1001C600E4800B0102040810204080900325E47EA1
:1001D600019360BCA3FF543F30E509541FFEE4932E
:1001E600A360010ECF54C025E060A840B8E493A3F5
:1001F600FAE493A3F8E493A3C8C582C8CAC583CA20
:10020600F0A3C8C582C8CAC583CADFE9DEE780BED7
:0103310000CB
:00000001FF
