:09089100013900013B16013A1681
:06077B00D2957D157F11EF
:10078100758901758CFF758AA4D2AFD2A9D28C8FDD
:0A0791003A8D3B7F037E0002075DF6
:10032C001206C312077B120502AC06AD07E41201DC
:10033C00197BCD7ACC798C783F12000E1201528E3B
:10034C00488F49E4FD7F85120867AE48AF497C278A
:10035C007D101202C97C007D0A1202C9ED2430FF07
:10036C007D01120867AE48AF497C037DE81202C9D3
:10037C007C007D0A1202C9ED2430FF7D0112086752
:10038C00AE48AF497C007D641202C97C007D0A1224
:10039C0002C9ED2430FF7D01120867AE48AF497CDD
:1003AC00007D0A1202C97C007D0A1202C9ED2430BC
:1003BC00FF7D01120867D3E549943EE5489435501A
:1003CC00197D0C7F07120781C2957F607E09120789
:1003DC005D12077B7548367549B07F2C7E0112077C
:0403EC005D02033279
:03000B000205BE2D
:1005BE00C0E0C0D0758CFF758AA40539E539D39497
:1005CE00C8501BE539953B5004D2A28002C2A2E569
:1005DE0039D3953A5004D2A3800BC2A38007753944
:0A05EE0000C2A2C2A3D0D0D0E032B8
:1006EF00080C0406020301090901030206040C08A1
:1006FF00010204081020408000C0F9A4B099928232
:06070F00F880907FFFBF9F
:0B088600D2A0D2A100C2A0C2A100229B
:0E087800C2A0D2A1120003D2A0C2A1020003AE
:1007D900E4F54AD2A112000330A00BE54AC394FA0A
:0B07E9005004054A80F2C2A102000388
:0205F8008F4230
:1005FA00E4F543C2A1120003C374079543FFE54221
:10060A00A807088002C313D8FC1392A0120003D2D1
:10061A00A11200030543E543C3940840D6C2A1D200
:02062A00A0002E
:01062C0022AB
:10062D00E4F53CC2A1120003E4F53ED2A112000391
:10063D00A2A0E433F53DE53C25E0F53CE53D423C2B
:10064D00120003C2A1120003053EE53EC39408400B
:03065D00DAAF3CD5
:010660002277
:10079B008D448B451208861205F81207D9AF441207
:1007AB0005F81207D9AF451205F81207D9020878D8
:040661008F3F8D40FA
:10066500120886AF3F1205F81207D9AF401205F8F8
:100675001207D9120886E53F04FF1205F81207D9BB
:0D06850012062D8F411207D9120878AF41DF
:010692002245
:080003000000000000000022D3
:08047C008F088C098D0A8B0B1F
:10048400780C7C007D007BFF7A0679EF7E007F0884
:100494001202A378147C007D007BFF7A0679F77E34
:1004A400007F081202A3E50AAE097803C333CE33F2
:1004B400CED8F9F5208E1FE4F51DF51EC3E51E9573
:1004C40020E51D951F5036E508B40113E4F51C74AE
:1004D4000C120828051CE51CC3940840F28014E59E
:1004E400087010F51C7414120828051CE51CC3942C
:0D04F4000840F2051EE51E70C3051D80BF07
:0105010022D7
:08082800251CF8E6F590AF0B6A
:0D083000EFD3940040077E2BDEFE1F80F307
:01083D002298
:10058100E4FF120693EF600280131207597FCC1229
:1005910007F47F441207F4120693EF60057E037F90
:1005A100E7221207597FCC1207F47FBE1207F4121B
:0C05B10005428F4B120542EFFEE54BFFA8
:0105BD00221B
:10054200E4FF7D08FCC2A20FBF0000D2A20FBF00D1
:10055200000FBF0000A2A2E433C43333335480FF40
:10056200E9C3134FF97E007F04EF1FAA0670011E34
:0E0572004A70F6ED1D70011CED4C70C9AF0112
:010580002258
:1007F400E4FEC2A2EF1392A27D06AC051DEC70FAD2
:0A080400D2A2EFC313FF0EBE08E8F6
:01080E0022C7
:10069300E4F546F547C2A27F01FE12075DD2A23000
:1006A300A21B7F041208A30547E54770020546D342
:0F06B3009405E5466480948040E57F01227F0036
:0106C2002215
:0508A3007F04DFFE22CE
:1005020075890112089B30A1FDE4F58CF58AD28C25
:1005120020A1FDC28CAF8CEFFEAD8A7C00E42DFFE2
:10052200EC3EC313FCEF13FDE41201197B9A7A9996
:0F0532007959784012000E120152E4F58CF58AC7
:010541002297
:08089B00D2A0120759C2A022ED
:10085400D292D290D2918F80C292C2918D80D29145
:03086400D292220B
:10083E00D292D290D2918F80C2927580FFC290AF29
:05084E0080D290D2925F
:010853002282
:1006C300C2A6E4FD7F381208677F0F7E0012075D24
:1006D300E4FD7F381208677F057E0012075DE4FDA5
:0C06E3007F0C120867E4FD7F0602086728
:10086700C2A4ED24FF92A58F80D2A4120759C2A477
:01087700225E
:10080F008D4C120715AF4C1207371207597F08127C
:09081F0007157F0B1207370022B8
:020715008F2F24
:1007170078307C007D007BFF7A0679FF7E007F09B9
:0F0727001202A3D2A67430252FF8E6F580C2A6E1
:0107360022A0
:020737008F2110
:1007390078227C007D007BFF7A0779087E007F0D97
:0F0749001202A3D2A574222521F8E6F580C2A5DD
:01075800227E
:1007BB00C2A3E4FEC294EFA806088002C333D8FCA0
:0D07CB00339290D2940EBE08EBD2A3D290D0
:0107D80022FE
:040759007F017E009E
:10075D00D3EF9400EE940040147D727C00ED1D707B
:0D076D00011CED4C70F7EF1F70E61E80E3DD
:01077A00225C
:10000E00EC4D6011E8497017ED33EC3304600DE4EC
:10001E00FCFFFEFD22E933E8330470F80201BE1244
:10002E00018958046009E4CC248150062850090245
:10003E0001C82840030201C5C0E0EB4A7044B980F4
:10004E0006D0E0FB0201B4EF4E701CBD8008EBFF42
:10005E00EAFEE9FD80EBE98DF0A4FEE5F00200F783
:10006E00E9CDF9EAFEEBFFEF89F0A4FCE5F0CE89CD
:10007E00F0A42EFFE435F0CD89F0A42DFEE435F08A
:10008E008067EF4E7005BD80D780C3EF8BF0A4ACB8
:10009E00F0EE8BF0A42CFCE435F0F8EF8AF0A42CF3
:1000AE00E5F038FCE433CB8DF0A42CFCE5F03BF806
:1000BE00EE8AF0A42CFCE5F038F8E433CF89F0A4F6
:1000CE002CFCE5F038CF3400CE89F0A42FFFE5F0FC
:1000DE003EFEE433C98DF0A42EFEE5F039CD8AF054
:1000EE00A42FFFE5F03EFEE43DFD33D0E0FB5007CC
:1000FE000BBB000F0201C8EC2CFCEF33FFEE33FEFE
:06010E00ED33FD0201A02B
:1001140075F020800E75F010800575F0087D007E66
:10012400007F003392D530D50312031EEC33401008
:10013400EF33FFEE33FEED33FDEC33FCD5F0ED226F
:0E014400E5F0247EA2D513CC92E7CDCEFF22AB
:10015200EDD2E7CD33EC3392D524814006E4FFFEA5
:10016200FDFC22FCE4CFCECDCC24E0501174FF8004
:10017200EDC3CC13CCCD13CDCE13CECF13CF0470A1
:07018200F030D5DE02031E80
:10018900E9D2E7C933E833F892D5EDD2E7CD33ECBC
:0701990033FC5002B2D52235
:1001A000EC30E7100FBF000C0EBE00080DBD0004C0
:1001B0000BEB6014A2D5EB13FCED92E7FD2274FF6C
:1001C000FCFDFEFF22E480F8A2D574FF13FC7D80C5
:0301D000E480EFD9
:030000000203F008
:0C03F000787FE4F6D8FD75814C020437DC
:1001D300E709F608DFFA8046E709F208DFFA803E0E
:1001E30088828C83E709F0A3DFFA8032E309F608FB
:1001F300DFFA8078E309F208DFFA807088828C8363
:10020300E309F0A3DFFA806489828A83E0A3F60816
:10021300DFFA805889828A83E0A3F208DFFA804CF0
:1002230080D280FA80C680D4806980F280338010C7
:1002330080A680EA809A80A880DA80E280CA803330
:1002430089828A83ECFAE493A3C8C582C8CCC583A8
:10025300CCF0A3C8C582C8CCC583CCDFE9DEE78078
:100263000D89828A83E493A3F608DFF9ECFAA9F0F7
:10027300EDFB2289828A83ECFAE0A3C8C582C8CC4D
:10028300C583CCF0A3C8C582C8CCC583CCDFEADE66
:10029300E880DB89828A83E493A3F208DFF980CCC8
:1002A30088F0EF60010E4E60C388F0ED2402B404C1
:1002B3000050B9F582EB2402B4040050AF23234568
:0602C30082239002237368
:1002C900BC000BBE0029EF8DF084FFADF022E4CC19
:1002D900F875F008EF2FFFEE33FEEC33FCEE9DECE2
:1002E900984005FCEE9DFE0FD5F0E9E4CEFD22ED28
:1002F900F8F5F0EE8420D21CFEADF075F008EF2F72
:10030900FFED33FD4007985006D5F0F222C398FD62
:050319000FD5F0EA22FF
:0E031E00C3E49FFFE49EFEE49DFDE49CFC22F0
:1003FC0002032CE493A3F8E493A34003F68001F2E8
:10040C0008DFF48029E493A3F85407240CC8C33301
:10041C00C4540F4420C8834004F456800146F6DFD0
:10042C00E4800B0102040810204080900891E47EC7
:10043C00019360BCA3FF543F30E509541FFEE493C5
:10044C00A360010ECF54C025E060A840B8E493A38C
:10045C00FAE493A3F8E493A3C8C582C8CAC583CAB7
:10046C00F0A3C8C582C8CAC583CADFE9DEE780BE6F
:01089A00005D
:00000001FF
