:0506A0001204D680FEEB
:10050200080C0406020301090901030206040C088F
:10051200010204081020408000C0F9A4B099928220
:06052200F880907FFFBF8E
:0B068500D2A0D2A100C2A0C2A100229E
:0E066B00C2A0D2A1120690D2A0C2A102069097
:1005CC00E4F545D2A112069030A00BE545C394FA90
:0B05DC005004054580F2C2A102069009
:02040B008F3F21
:10040D00E4F540C2A1120690C374079540FFE53F85
:10041D00A807088002C313D8FC1392A0120690D22D
:10042D00A11206900540E540C3940840D6C2A1D262
:02043D00A0001D
:01043F00229A
:10044000E4F539C2A1120690E4F53BD2A112069060
:10045000A2A0E433F53AE53925E0F539E53A423929
:10046000120690C2A1120690053BE53BC3940840DA
:03047000DAAF39C7
:010473002266
:10058E008D418B4212068512040B1205CCAF41121F
:10059E00040B1205CCAF4212040B1205CC02066BF3
:040474008F3C8D3DEF
:10047800120685AF3C12040B1205CCAF3D12040BDB
:100488001205CC120685E53C04FF12040B1205CCBC
:0D0498001204408F3E1205CC12066BAF3EE1
:0104A5002234
:08069000000000000000002240
:0802CC008F088C098D0A8B0BD1
:1002D400780C7C007D007BFF7A0579027E007F0824
:1002E40012029878147C007D007BFF7A05790A7EDF
:1002F400007F08120298E50AAE097803C333CE33AF
:10030400CED8F9F5208E1FE4F51DF51EC3E51E9524
:1003140020E51D951F5036E508B40113E4F51C745F
:100324000C12061B051CE51CC3940840F28014E55E
:10033400087010F51C741412061B051CE51CC394EC
:0D0344000840F2051EE51E70C3051D80BFB8
:010351002289
:08061B00251CF8E6F590AF0B79
:0D062300EFD3940040077E2BDEFE1F80F316
:0106300022A7
:10039100E4FF1204A6EF6002801312056C7FCC12F9
:1003A10005E77F441205E71204A6EF60057E037F8F
:1003B100E72212056C7FCC1205E77FBE1205E7121A
:0C03C10003528F46120352EFFEE546FF88
:0103CD00220D
:10035200E4FF7D08FCC2A20FBF0000D2A20FBF00C3
:10036200000FBF0000A2A2E433C43333335480FF32
:10037200E9C3134FF97E007F04EF1FAA0670011E26
:0E0382004A70F6ED1D70011CED4C70C9AF0104
:01039000224A
:1005E700E4FEC2A2EF1392A27D06AC051DEC70FAE1
:0A05F700D2A2EFC313FF0EBE08E806
:0106010022D6
:1004A600E4F543F544C2A27F01FE120570D2A230E4
:1004B600A21B7F041206A50544E54470020543D33A
:0F04C6009405E5436480948040E57F01227F0028
:0104D5002204
:0506A5007F04DFFE22CE
:1003CE0075890130A1FDE4F58CF58AD28C20A1FD52
:1003DE00C28CAF8CEFFEAD8A7C00E42DFFEC3EC3E9
:1003EE0013FCEF13FDE412010E7B9A7A997959787A
:0C03FE0040120003120147E4F58CF58A60
:01040A0022CF
:08069800D2A012056CC2A022E1
:10064700D292D290D2918F80C292C2918D80D29154
:03065700D292221A
:10063100D292D290D2918F80C2927580FFC290AF38
:0506410080D290D2926E
:010646002291
:1004D600C2A6E4FD7F3812065A7F0F7E0012057011
:1004E600E4FD7F3812065A7F057E00120570E4FD92
:0C04F6007F0C12065AE4FD7F0602065A35
:10065A00C2A4ED24FF92A58F80D2A412056CC2A475
:01066A00226D
:100602008D47120528AF4712054A12056C7F081262
:0906120005287F0B12054A0022A5
:020528008F2F13
:10052A0078307C007D007BFF7A0579127E007F0996
:0F053A00120298D2A67430252FF8E6F580C2A6DB
:01054900228F
:02054A008F21FF
:10054C0078227C007D007BFF7A05791B7E007F0D75
:0F055C00120298D2A574222521F8E6F580C2A5D7
:01056B00226D
:1005AE00C2A3E4FEC294EFA806088002C333D8FCAF
:0D05BE00339290D2940EBE08EBD2A3D290DF
:0105CB00220D
:04056C007F017E008D
:10057000D3EF9400EE940040147D727C00ED1D706A
:0D058000011CED4C70F7EF1F70E61E80E3CC
:01058D00224B
:10000300EC4D6011E8497017ED33EC3304600DE4F7
:10001300FCFFFEFD22E933E8330470F80201B3125A
:10002300017E58046009E4CC24815006285009025B
:1000330001BD2840030201BAC0E0EB4A7044B98015
:1000430006D0E0FB0201A9EF4E701CBD8008EBFF58
:10005300EAFEE9FD80EBE98DF0A4FEE5F00200EC99
:10006300E9CDF9EAFEEBFFEF89F0A4FCE5F0CE89D8
:10007300F0A42EFFE435F0CD89F0A42DFEE435F095
:100083008067EF4E7005BD80D780C3EF8BF0A4ACC3
:10009300F0EE8BF0A42CFCE435F0F8EF8AF0A42CFE
:1000A300E5F038FCE433CB8DF0A42CFCE5F03BF811
:1000B300EE8AF0A42CFCE5F038F8E433CF89F0A401
:1000C3002CFCE5F038CF3400CE89F0A42FFFE5F007
:1000D3003EFEE433C98DF0A42EFEE5F039CD8AF05F
:1000E300A42FFFE5F03EFEE43DFD33D0E0FB5007D7
:1000F3000BBB000F0201BDEC2CFCEF33FFEE33FE14
:06010300ED33FD02019541
:1001090075F020800E75F010800575F0087D007E71
:10011900007F003392D530D5031202BEEC33401074
:10012900EF33FFEE33FEED33FDEC33FCD5F0ED227A
:0E013900E5F0247EA2D513CC92E7CDCEFF22B6
:10014700EDD2E7CD33EC3392D524814006E4FFFEB0
:10015700FDFC22FCE4CFCECDCC24E0501174FF800F
:10016700EDC3CC13CCCD13CDCE13CECF13CF0470AC
:07017700F030D5DE0202BEEC
:10017E00E9D2E7C933E833F892D5EDD2E7CD33ECC7
:07018E0033FC5002B2D52240
:10019500EC30E7100FBF000C0EBE00080DBD0004CB
:1001A5000BEB6014A2D5EB13FCED92E7FD2274FF77
:1001B500FCFDFEFF22E480F8A2D574FF13FC7D80D0
:0301C500E480EFE4
:030000000206797C
:0C067900787FE4F6D8FD7581480206A0E9
:1001C800E709F608DFFA8046E709F208DFFA803E19
:1001D80088828C83E709F0A3DFFA8032E309F60806
:1001E800DFFA8078E309F208DFFA807088828C836E
:1001F800E309F0A3DFFA806489828A83E0A3F60822
:10020800DFFA805889828A83E0A3F208DFFA804CFB
:1002180080D280FA80C680D4806980F280338010D2
:1002280080A680EA809A80A880DA80E280CA80333B
:1002380089828A83ECFAE493A3C8C582C8CCC583B3
:10024800CCF0A3C8C582C8CCC583CCDFE9DEE78083
:100258000D89828A83E493A3F608DFF9ECFAA9F002
:10026800EDFB2289828A83ECFAE0A3C8C582C8CC58
:10027800C583CCF0A3C8C582C8CCC583CCDFEADE71
:10028800E880DB89828A83E493A3F208DFF980CCD3
:1002980088F0EF60010E4E60C388F0ED2402B404CC
:1002A8000050B9F582EB2402B4040050AF23234573
:0602B8008223900218737E
:0E02BE00C3E49FFFE49EFEE49DFDE49CFC2251
:00000001FF
