:1006AF00080C0406020301090901030206040C08E1
:1006BF00010204081020408000C0F9A4B099928272
:0606CF00F880907FFFBFE0
:0B08A600D2A0D2A100C2A0C2A100227B
:0E088C00C2A0D2A11208B1D2A0C2A10208B12E
:10079A00E4F555D2A11208B130A00BE555C394FA7D
:0B07AA005004055580F2C2A10208B106
:020585008F4F96
:10058700E4F550C2A11208B1C374079550FFE54FB7
:10059700A807088002C313D8FC1392A01208B1D28F
:1005A700A11208B10550E550C3940840D6C2A1D2A4
:0205B700A000A2
:0105B900221F
:1005BA00E4F549C2A11208B1E4F54BD2A11208B17F
:1005CA00A2A0E433F54AE54925E0F549E54A42495E
:1005DA001208B1C2A11208B1054BE54BC3940840F9
:0305EA00DAAF493C
:0105ED0022EB
:10075C008D518B521208A612058512079AAF5112B1
:10076C00058512079AAF5212058512079A02088C5A
:040621008F4C8D4D20
:100625001208A6AF4C12058512079AAF4D12058523
:1006350012079A1208A6E54C04FF12058512079ABF
:0D0645001205BA8F4E12079A12088CAF4EA4
:010652002285
:0808B10000000000000000221D
:080401008F088C098D0A8B0B9A
:10040900780C7C007D007BFF7A0679AF7E007F083F
:1004190012029878147C007D007BFF7A0679B77EFA
:10042900007F08120298E50AAE097803C333CE3378
:10043900CED8F9F5208E1FE4F51DF51EC3E51E95EE
:1004490020E51D951F5036E508B40113E4F51C7429
:100459000C120819051CE51CC3940840F28014E528
:10046900087010F51C7414120819051CE51CC394B6
:0D0479000840F2051EE51E70C3051D80BF82
:010486002253
:08081900251CF8E6F590AF0B79
:0D082100EFD3940040077E2BDEFE1F80F316
:01082E0022A7
:10050B00E4FF120653EF600280131207197FCC121F
:10051B0007B57F441207B5120653EF60057E037FC4
:10052B00E7221207197FCC1207B57FBE1207B5124F
:0C053B0004CC8F561204CCEFFEE556FFF6
:010547002291
:1004CC00E4FF7D08FCC2A20FBF0000D2A20FBF0048
:1004DC00000FBF0000A2A2E433C43333335480FFB7
:1004EC00E9C3134FF97E007F04EF1FAA0670011EAB
:0E04FC004A70F6ED1D70011CED4C70C9AF0189
:01050A0022CE
:1007B500E4FEC2A2EF1392A27D06AC051DEC70FA11
:0A07C500D2A2EFC313FF0EBE08E836
:0107CF002207
:10065300E4F553F554C2A27F01FE12071DD2A23066
:10066300A21B7F041208C10554E55470020553D33D
:0F0673009405E5536480948040E57F01227F0069
:010682002255
:0508C1007F04DFFE22B0
:1005480075890130A1FDE4F58CF58AD28C20A1FDD6
:10055800C28CAF8CEFFEAD8A7C00E42DFFEC3EC36D
:1005680013FCEF13FDE412010E7B9A7A99795978FE
:0C05780040120003120147E4F58CF58AE4
:010584002254
:0808B900D2A0120719C2A0220F
:10085900D292D290D2918F80C292C2918D80D29140
:03086900D2922206
:10082F00D292D290D2918F80C2927580FFC290AF38
:05083F0080D290D2926E
:010844002291
:10068300C2A6E4FD7F3812086C7F0F7E0012071D9F
:10069300E4FD7F3812086C7F057E0012071DE4FD20
:0C06A3007F0C12086CE4FD7F0602086C5E
:10086C00C2A4ED24FF92A58F80D2A4120719C2A4B2
:01087C002259
:1007D0008D571206D5AF571206F71207197F081268
:0907E00006D57F0B1206F700227A
:0206D5008F3F55
:1006D70078407C007D007BFF7A0679BF7E007F092A
:0F06E700120298D2A67440253FF8E6F580C2A60D
:0106F60022E1
:0206F7008F3141
:1006F90078327C007D007BFF7A0679C87E007F0D09
:0F070900120298D2A574322531F8E6F580C2A508
:0107180022BE
:10077C00C2A3E4FEC294EFA806088002C333D8FCDF
:0D078C00339290D2940EBE08EBD2A3D2900F
:01079900223D
:040719007F017E00DE
:10071D00D3EF9400EE940040147D727C00ED1D70BB
:0D072D00011CED4C70F7EF1F70E61E80E31D
:01073A00229C
:10073B00D2A1000000000000D2A0000000000000C9
:10074B00C2A0000000000000C2A1000000000000D9
:01075B00227B
:1007E900C2A0000000000000D2A10000000000002B
:0907F900D2A00000000000002263
:10048700E4F530FEC2A1000000000000EF3392A0A7
:10049700EF25E0FFD2A10000000000000EBE08E437
:1004A700C2A1000000000000D2A000000000000070
:1004B700D2A10030A00BE52FC394FA5004052F807A
:0404C700F2C2A100DC
:0104CB00220E
:1005EE00E4FFC2A1000000000000D2A000FED2A1D4
:1005FE00000000000000EF25E0FF30A003430701DC
:10060E00000000000000C2A10000000000000EBEAD
:02061E0008DCF6
:0106200022B7
:10084500AD0712073B7F90120487ED4440FF120469
:04085500870207E926
:0E087D0012073B7F911204871205EE1207E965
:01088B00224A
:10080200AE07AC0312073B120487AF05120487AF91
:07081200041204870207E94C
:100321001206837580FFE4FF12084512087D7523CC
:10033100008F24AC23AD24E412010E7B617AFD7998
:100341009F783C1200038F288E278D268C25E4FF91
:10035100FE7DC87C42AB28AA27A926A82512000346
:100361001201478E218F227C037DE81202BE8F2964
:10037100AE21AF227C037DE81202BE7E007F64CFF6
:10038100CDCFCECCCE1202BE8F2A752B2EAE21AF91
:10039100227C007D641202BE7E007F0ACFCDCFCECB
:1003A100CCCE1202BE8F2CAE21AF227C007D0A1270
:1003B10002BE8D2D752E56E4FD7F8812086CE5294D
:1003C1002430FF7D0112086CE52A2430FF7D0112E3
:1003D100086C7D01AF2B12086CE52C2430FF7D01E8
:1003E10012086CE52D2430FF7D0112086C7D01AFF0
:1003F1002E12086CAB247D407F9012080202032468
:10000300EC4D6011E8497017ED33EC3304600DE4F7
:10001300FCFFFEFD22E933E8330470F80201B3125A
:10002300017E58046009E4CC24815006285009025B
:1000330001BD2840030201BAC0E0EB4A7044B98015
:1000430006D0E0FB0201A9EF4E701CBD8008EBFF58
:10005300EAFEE9FD80EBE98DF0A4FEE5F00200EC99
:10006300E9CDF9EAFEEBFFEF89F0A4FCE5F0CE89D8
:10007300F0A42EFFE435F0CD89F0A42DFEE435F095
:100083008067EF4E7005BD80D780C3EF8BF0A4ACC3
:10009300F0EE8BF0A42CFCE435F0F8EF8AF0A42CFE
:1000A300E5F038FCE433CB8DF0A42CFCE5F03BF811
:1000B300EE8AF0A42CFCE5F038F8E433CF89F0A401
:1000C3002CFCE5F038CF3400CE89F0A42FFFE5F007
:1000D3003EFEE433C98DF0A42EFEE5F039CD8AF05F
:1000E300A42FFFE5F03EFEE43DFD33D0E0FB5007D7
:1000F3000BBB000F0201BDEC2CFCEF33FFEE33FE14
:06010300ED33FD02019541
:1001090075F020800E75F010800575F0087D007E71
:10011900007F003392D530D503120313EC3340101E
:10012900EF33FFEE33FEED33FDEC33FCD5F0ED227A
:0E013900E5F0247EA2D513CC92E7CDCEFF22B6
:10014700EDD2E7CD33EC3392D524814006E4FFFEB0
:10015700FDFC22FCE4CFCECDCC24E0501174FF800F
:10016700EDC3CC13CCCD13CDCE13CECF13CF0470AC
:07017700F030D5DE02031396
:10017E00E9D2E7C933E833F892D5EDD2E7CD33ECC7
:07018E0033FC5002B2D52240
:10019500EC30E7100FBF000C0EBE00080DBD0004CB
:1001A5000BEB6014A2D5EB13FCED92E7FD2274FF77
:1001B500FCFDFEFF22E480F8A2D574FF13FC7D80D0
:0301C500E480EFE4
:0300000002089A59
:0C089A00787FE4F6D8FD75815702032139
:1001C800E709F608DFFA8046E709F208DFFA803E19
:1001D80088828C83E709F0A3DFFA8032E309F60806
:1001E800DFFA8078E309F208DFFA807088828C836E
:1001F800E309F0A3DFFA806489828A83E0A3F60822
:10020800DFFA805889828A83E0A3F208DFFA804CFB
:1002180080D280FA80C680D4806980F280338010D2
:1002280080A680EA809A80A880DA80E280CA80333B
:1002380089828A83ECFAE493A3C8C582C8CCC583B3
:10024800CCF0A3C8C582C8CCC583CCDFE9DEE78083
:100258000D89828A83E493A3F608DFF9ECFAA9F002
:10026800EDFB2289828A83ECFAE0A3C8C582C8CC58
:10027800C583CCF0A3C8C582C8CCC583CCDFEADE71
:10028800E880DB89828A83E493A3F208DFF980CCD3
:1002980088F0EF60010E4E60C388F0ED2402B404CC
:1002A8000050B9F582EB2402B4040050AF23234573
:0602B8008223900218737E
:1002BE00BC000BBE0029EF8DF084FFADF022E4CC24
:1002CE00F875F008EF2FFFEE33FEEC33FCEE9DECED
:1002DE00984005FCEE9DFE0FD5F0E9E4CEFD22ED33
:1002EE00F8F5F0EE8420D21CFEADF075F008EF2F7D
:1002FE00FFED33FD4007985006D5F0F222C398FD6E
:05030E000FD5F0EA220A
:0E031300C3E49FFFE49EFEE49DFDE49CFC22FB
:00000001FF
