:0401220002080000CF
:0400FF007FBC7E0242
:10010300D3EF9400EE94004015E4FDFC0DBD000117
:0E0113000CED647D4C70F5EF1F70E51E80E270
:0101210022BB
:10008F00D2A220A2FD7F197E0012010320A2F3C28B
:10009F00A07FE87E03120103D2A07F207E0312010E
:1000AF0003C2901200FFD290C2911200FFD291C2F0
:1000BF00921200FFD292C2931200FFD293C29412F7
:1000CF0000FFD294C2951200FFD295C2961200FF84
:1000DF00D296C2971200FFD2977FF47E01120103CE
:1000EF00C2A17FE87E03120103D2A1D2A202009126
:03000000020003F8
:0C000300787FE4F6D8FD75810902004A00
:10000F0002008FE493A3F8E493A34003F68001F278
:10001F0008DFF48029E493A3F85407240CC8C333F2
:10002F00C4540F4420C8834004F456800146F6DFC1
:10003F00E4800B0102040810204080900122E47E2E
:10004F00019360BCA3FF543F30E509541FFEE493B6
:10005F00A360010ECF54C025E060A840B8E493A37D
:10006F00FAE493A3F8E493A3C8C582C8CAC583CAA8
:10007F00F0A3C8C582C8CAC583CADFE9DEE780BE60
:0101260000D8
:00000001FF
