:04005D007F0A7E0098
:10006100D3EF9400EE6480948040147D727C00EDA7
:0F0071001D70011CED4C70F7EF1F70E41E80E155
:01008000225D
:10000300D294D295D290C291D292C293D2A0D2A1CD
:1000130020A0217F327E0012006120A01730A0FDB6
:10002300D292D295C29312005DC29412005DC29027
:10003300D291D2A020A1D97F327E0012006120A1EB
:10004300CF30A1FDD290D294C29112005DC295121D
:0A005300005DC292D293D2A180B6E4
:030000000200817A
:0C008100787FE4F6D8FD758107020003CB
:00000001FF
