:0308770001460136
:1007E1008F08E5466508600F7B117D237C001204AC
:0807F10092E4F5908508462210
:1002CC00C2A0C2A2C2A130A13630A23330A0307F6E
:1002DC00647E0012073630A12630A22330A02030D5
:1002EC00A10630A20320A0F7E4FF1207E17FF47E01
:1002FC00011207367F011207E1C2A1C2A2C2A030CF
:10030C00A0207F327E0012073630A01620A0FDE41C
:10031C00FF1207E17F887E131207367F011207E177
:10032C00C2A030A2A120A19E20A09B7F327E0012F1
:10033C00073630A29120A18E20A08B20A2FD7F58E1
:10034C007E0212073620A2030202D220A10302026F
:10035C00D230A0030202D27F327E0012073620A2D6
:10036C00030202D220A1030202D230A0030202D265
:10037C0030A20320A1FA7F587E0212073620A20376
:10038C000202D230A1030202D230A0030202D27FB9
:10039C00327E0012073620A2030202D230A10302E1
:1003AC0002D230A0030202D220A2FD7F587E02129C
:1003BC00073630A2030202D220A1030202D230A0DF
:1003CC00030202D27F327E0012073630A2030202F1
:1003DC00D220A1030202D230A0030202D220A1FD3E
:1003EC00E4FF1207E17F887E131207367F011207A4
:0A03FC00E1C2A2C2A1C2A00202D217
:1006C800080C0406020301090901030206040C08C8
:1006D800010204081020408000C0F9A4B099928259
:0606E800F880907FFFBFC7
:0B085700D2A0D2A100C2A0C2A10022CA
:0E084900C2A0D2A1120862D2A0C2A10208620F
:10079200E4F547D2A112086230A00BE547C394FAF0
:0B07A2005004054780F2C2A10208626B
:0205D1008F4059
:1005D300E4F541C2A1120862C374079541FFE540E7
:1005E300A807088002C313D8FC1392A0120862D292
:1005F300A11208620541E541C3940840D6C2A1D2C5
:02060300A00055
:0106050022D2
:10060600E4F53AC2A1120862E4F53CD2A1120862EE
:10061600A2A0E433F53BE53A25E0F53AE53B423A5C
:10062600120862C2A1120862053CE53CC394084068
:03063600DAAF3AFE
:01063900229E
:100754008D428B431208571205D1120792AF4212F1
:1007640005D1120792AF431205D11207920208492C
:04063A008F3D8D3E25
:10063E00120857AF3D1205D1120792AF3E1205D1E7
:10064E00120792120857E53D04FF1205D1120792C8
:0D065E001206068F3F120792120849AF3FA7
:01066B00226C
:0808620000000000000000226C
:080492008F098C0A8D0B8B0C05
:10049A00780D7C007D007BFF7A0679C87E007F0894
:1004AA0012029878157C007D007BFF7A0679D07E4F
:1004BA00007F08120298E50BAE0A7803C333CE33E5
:1004CA00CED8F9F5218E20E4F51EF51FC3E51F9558
:1004DA0021E51E95205036E509B40113E4F51D7493
:1004EA000D1207F9051DE51DC3940840F28014E5B5
:1004FA00097010F51D74151207F9051DE51DC39441
:0D050A000840F2051FE51F70C3051E80BFED
:0105170022C1
:0807F900251DF8E6F590AF0C98
:0D080100EFD3940040077E2BDEFE1F80F336
:01080E0022C7
:10055700E4FF12066CEF600280131207327FCC12A1
:1005670007AD7F441207AD12066CEF60057E037F6F
:10057700E7221207327FCC1207AD7FBE1207AD12FA
:0C05870005188F48120518EFFEE548FF2C
:010593002245
:10051800E4FF7D08FCC2A20FBF0000D2A20FBF00FB
:10052800000FBF0000A2A2E433C43333335480FF6A
:10053800E9C3134FF97E007F04EF1FAA0670011E5E
:0E0548004A70F6ED1D70011CED4C70C9AF013C
:010556002282
:1007AD00E4FEC2A2EF1392A27D06AC051DEC70FA19
:0A07BD00D2A2EFC313FF0EBE08E83E
:0107C700220F
:10066C00E4F544F545C2A27F01FE120736D2A23052
:10067C00A21B7F041208720545E54570020544D3A0
:0F068C009405E5446480948040E57F01227F005F
:01069B00223C
:050872007F04DFFE22FF
:1005940075890130A1FDE4F58CF58AD28C20A1FD8A
:1005A400C28CAF8CEFFEAD8A7C00E42DFFEC3EC321
:1005B40013FCEF13FDE412010E7B9A7A99795978B2
:0C05C40040120003120147E4F58CF58A98
:0105D0002208
:08086A00D2A0120732C2A02245
:10082500D292D290D2918F80C292C2918D80D29174
:03083500D292223A
:10080F00D292D290D2918F80C2927580FFC290AF58
:05081F0080D290D2928E
:0108240022B1
:10069C00C2A6E4FD7F381208387F0F7E00120736A1
:1006AC00E4FD7F381208387F057E00120736E4FD22
:0C06BC007F0C120838E4FD7F06020838AD
:10083800C2A4ED24FF92A58F80D2A4120732C2A4CD
:01084800228D
:1007C8008D491206EEAF491207101207327F081240
:0907D80006EE7F0B12071000224F
:0206EE008F304B
:1006F00078317C007D007BFF7A0679D87E007F0907
:0F070000120298D2A674312530F8E6F580C2A611
:01070F0022C7
:020710008F2236
:1007120078237C007D007BFF7A0679E17E007F0DE5
:0F072200120298D2A574232522F8E6F580C2A50D
:0107310022A5
:10077400C2A3E4FEC294EFA806088002C333D8FCE7
:0D078400339290D2940EBE08EBD2A3D29017
:010791002245
:040732007F017E00C5
:10073600D3EF9400EE940040147D727C00ED1D70A2
:0D074600011CED4C70F7EF1F70E61E80E304
:010753002283
:10000300EC4D6011E8497017ED33EC3304600DE4F7
:10001300FCFFFEFD22E933E8330470F80201B3125A
:10002300017E58046009E4CC24815006285009025B
:1000330001BD2840030201BAC0E0EB4A7044B98015
:1000430006D0E0FB0201A9EF4E701CBD8008EBFF58
:10005300EAFEE9FD80EBE98DF0A4FEE5F00200EC99
:10006300E9CDF9EAFEEBFFEF89F0A4FCE5F0CE89D8
:10007300F0A42EFFE435F0CD89F0A42DFEE435F095
:100083008067EF4E7005BD80D780C3EF8BF0A4ACC3
:10009300F0EE8BF0A42CFCE435F0F8EF8AF0A42CFE
:1000A300E5F038FCE433CB8DF0A42CFCE5F03BF811
:1000B300EE8AF0A42CFCE5F038F8E433CF89F0A401
:1000C3002CFCE5F038CF3400CE89F0A42FFFE5F007
:1000D3003EFEE433C98DF0A42EFEE5F039CD8AF05F
:1000E300A42FFFE5F03EFEE43DFD33D0E0FB5007D7
:1000F3000BBB000F0201BDEC2CFCEF33FFEE33FE14
:06010300ED33FD02019541
:1001090075F020800E75F010800575F0087D007E71
:10011900007F003392D530D5031202BEEC33401074
:10012900EF33FFEE33FEED33FDEC33FCD5F0ED227A
:0E013900E5F0247EA2D513CC92E7CDCEFF22B6
:10014700EDD2E7CD33EC3392D524814006E4FFFEB0
:10015700FDFC22FCE4CFCECDCC24E0501174FF800F
:10016700EDC3CC13CCCD13CDCE13CECF13CF0470AC
:07017700F030D5DE0202BEEC
:10017E00E9D2E7C933E833F892D5EDD2E7CD33ECC7
:07018E0033FC5002B2D52240
:10019500EC30E7100FBF000C0EBE00080DBD0004CB
:1001A5000BEB6014A2D5EB13FCED92E7FD2274FF77
:1001B500FCFDFEFF22E480F8A2D574FF13FC7D80D0
:0301C500E480EFE4
:03000000020406F1
:0C040600787FE4F6D8FD75814902044DB2
:1001C800E709F608DFFA8046E709F208DFFA803E19
:1001D80088828C83E709F0A3DFFA8032E309F60806
:1001E800DFFA8078E309F208DFFA807088828C836E
:1001F800E309F0A3DFFA806489828A83E0A3F60822
:10020800DFFA805889828A83E0A3F208DFFA804CFB
:1002180080D280FA80C680D4806980F280338010D2
:1002280080A680EA809A80A880DA80E280CA80333B
:1002380089828A83ECFAE493A3C8C582C8CCC583B3
:10024800CCF0A3C8C582C8CCC583CCDFE9DEE78083
:100258000D89828A83E493A3F608DFF9ECFAA9F002
:10026800EDFB2289828A83ECFAE0A3C8C582C8CC58
:10027800C583CCF0A3C8C582C8CCC583CCDFEADE71
:10028800E880DB89828A83E493A3F208DFF980CCD3
:1002980088F0EF60010E4E60C388F0ED2402B404CC
:1002A8000050B9F582EB2402B4040050AF23234573
:0602B8008223900218737E
:0E02BE00C3E49FFFE49EFEE49DFDE49CFC2251
:100412000202CCE493A3F8E493A34003F68001F232
:1004220008DFF48029E493A3F85407240CC8C333EB
:10043200C4540F4420C8834004F456800146F6DFBA
:10044200E4800B0102040810204080900877E47ECB
:10045200019360BCA3FF543F30E509541FFEE493AF
:10046200A360010ECF54C025E060A840B8E493A376
:10047200FAE493A3F8E493A3C8C582C8CAC583CAA1
:10048200F0A3C8C582C8CAC583CADFE9DEE780BE59
:01087A00007D
:00000001FF
