:10038700D3EF9400EE6480948040147D727C00ED7E
:100397001D70011CED4C70F7EF1F70011E80E1E42A
:0203A700FEFF57
:0103A9002231
:0D03DA00EFC4540F53070F75F00AA42FFF56
:0103E70022F3
:1003C700EF75F00A84FEEF75F00A84EEC454F02549
:0203D700F0FF35
:0103D9002201
:0602BD00AA07AF05AE0424
:1002C300C2B500C2B700D2B5007D08C2B700AB0209
:1002D300EB1392B600EAC313FAD2B700DDED7D0843
:1002E300C2B700AB07EB1392B600EEA2E713FEEF23
:0A02F30013FFD2B700DDE9C2B50029
:0102FD0022DE
:1002FE00C2B500C2B700D2B5007E08C2B700AD07C6
:10030E00ED1392B600EFC313FFD2B700DEED7E08F9
:10031E00D2B700A2B692E7C2B700C313DEF2C2B5DF
:02032E0000FFCE
:0103300022AA
:10036200E4FDFC7F8E1202BD7D567F801202BD7DB0
:10037200347F821202BD7D127F841202BD7D807F96
:050382008E1202BD22F5
:10022100EF4E700BD2A2007590F000C2A2C2A1EFF6
:1002310064014E700BD2A20075907000C2A2C2A1DF
:10024100EF64024E7009D2A27590B0C2A2C2A1EFB2
:1002510064034E7009D2A27590D0C2A2C2A1EF640C
:10026100044E7009D2A27590E0C2A2C2A1EF64054A
:100271004E7009D2A27590F8C2A2C2A1EF64064ED7
:100281007009D2A27590F4C2A2C2A1EF64074E70A8
:1002910009D2A27590F2C2A2C2A1EF64084E700900
:1002A100D2A27590F1C2A2C2A1EF64094E7009D227
:0C02B100A27590F0C2A2D2A1E4FEFF22D0
:10000300EF64014E6015EF64024E600FEF64034E20
:100013006009EF64044E60030200BFED4C7009D227
:10002300A30075907E00C2A3ED64014C7007D2A3B8
:10003300759012C2A3ED64024C7007D2A37590BCF5
:10004300C2A3ED64034C7007D2A37590B6C2A3EDAF
:1000530064044C7007D2A37590D2C2A3ED64054C1F
:100063007007D2A37590E6C2A3ED64064C7007D265
:10007300A37590EEC2A3ED64074C7007D2A37590ED
:1000830032C2A3ED64084C7007D2A37590FEC2A3DD
:10009300ED64094C7007D2A37590F6C2A3ED640A10
:1000A3004C7007D2A3759001C2A3ED640B4C60039F
:1000B30002021DD2A3F590C2A302021DEF64064EF5
:1000C3006015EF64074E600FEF64084E6009EF643C
:1000D300094E600302017AED4C7007D2A375908339
:1000E300C2A3ED64014C7007D2A37590EDC2A3EDDA
:1000F30064024C7007D2A3759043C2A3ED64034C12
:100103007007D2A37590C9C2A3ED64044C7007D2E3
:10011300A375902DC2A3ED64054C7007D2A375900F
:1001230019C2A3ED64064C7007D2A3759011C2A344
:10013300ED64074C7007D2A37590CDC2A3ED64089C
:100143004C7007D2A3759081C2A3ED64094C70076C
:10015300D2A3759009C2A3ED640A4C7007D2A375AC
:1001630090FEC2A3ED640B4C600302021DD2A37583
:1001730090FFC2A302021DEF64054E600302021D3D
:10018300ED4C7007D2A3759081C2A3ED64014C704E
:1001930007D2A37590EDC2A3ED64024C7007D2A3FE
:1001A3007590C2C2A3ED64034C7007D2A37590C8C7
:1001B300C2A3ED64044C7007D2A37590ACC2A3ED47
:1001C30064054C7007D2A3759098C2A3ED64064CE6
:1001D3007007D2A3759090C2A3ED64074C7007D249
:1001E300A37590CDC2A3ED64084C7007D2A375909C
:1001F30080C2A3ED64094C7007D2A3759088C2A393
:10020300ED640A4C7007D2A375907FC2A3ED640B13
:0E0213004C7007D2A37590FFC2A3E4FEFF2239
:1003AA00C2A0C2B4C2B5C2B6D2B7E4FFFE120221DD
:0D03BA00D2A4D2A5D2A6D2A7D2A0D2B4223E
:100331001203AA120362C2B4E4FFFE1202217F3249
:100341007E001203877D017C007F027E0012000384
:100351007FE87E03120387D2B47FF47E0112038704
:010361002279
:030000000203E810
:0C03E800787FE4F6D8FD75810702033130
:00000001FF
